:020000040000fa
:080000000001040000000000f3
:020000040000fa
:04000800c80100002b
:020000040000fa
:04000c00c801000027
:020000040000fa
:04001000c801000023
:020000040000fa
:04001400c80100001f
:020000040000fa
:04001800c80100001b
:020000040000fa
:04001c00c801000017
:020000040000fa
:04002000c801000013
:020000040000fa
:04002400c80100000f
:020000040000fa
:04002800c80100000b
:020000040000fa
:04002c00c801000007
:020000040000fa
:04003000c801000003
:020000040000fa
:04003400c8010000ff
:020000040000fa
:04003800c8010000fb
:020000040000fa
:04003c00c8010000f7
:020000040000fa
:04004000c8010000f3
:020000040000fa
:04004400c8010000ef
:020000040000fa
:04004800c8010000eb
:020000040000fa
:04004c00c8010000e7
:020000040000fa
:04005000c8010000e3
:020000040000fa
:04005400c8010000df
:020000040000fa
:04005800c8010000db
:020000040000fa
:04005c00c8010000d7
:020000040000fa
:04006000c8010000d3
:020000040000fa
:04006400c8010000cf
:020000040000fa
:04006800c8010000cb
:020000040000fa
:04006c00c8010000c7
:020000040000fa
:04007000c8010000c3
:020000040000fa
:04007400c8010000bf
:020000040000fa
:04007800c8010000bb
:020000040000fa
:04007c00c8010000b7
:020000040000fa
:04008000c8010000b3
:020000040000fa
:04008400c8010000af
:020000040000fa
:04008800c8010000ab
:020000040000fa
:04008c00c8010000a7
:020000040000fa
:04009000c8010000a3
:020000040000fa
:04009400c80100009f
:020000040000fa
:04009800c80100009b
:020000040000fa
:04009c00c801000097
:020000040000fa
:0400a000c801000093
:020000040000fa
:0400a400c80100008f
:020000040000fa
:0400a800c80100008b
:020000040000fa
:0400ac00c801000087
:020000040000fa
:0400b000c801000083
:020000040000fa
:0400b400c80100007f
:020000040000fa
:0400b800c80100007b
:020000040000fa
:0400bc00c801000077
:020000040000fa
:0400c000c801000073
:020000040000fa
:0400c400c80100006f
:020000040000fa
:0400c800c80100006b
:020000040000fa
:0400cc00c801000067
:020000040000fa
:0400d000c801000063
:020000040000fa
:0400d400c80100005f
:020000040000fa
:0400d800c80100005b
:020000040000fa
:04010800c80100002a
:020000040000fa
:04010c00c801000026
:020000040000fa
:04011000c801000022
:020000040000fa
:04011400c80100001e
:020000040000fa
:04011800c80100001a
:020000040000fa
:04011c00c801000016
:020000040000fa
:04012000c801000012
:020000040000fa
:04012400c80100000e
:020000040000fa
:04012800c80100000a
:020000040000fa
:04012c00c801000006
:020000040000fa
:04013000c801000002
:020000040000fa
:04013400c8010000fe
:020000040000fa
:04013800c8010000fa
:020000040000fa
:04013c00c8010000f6
:020000040000fa
:04014000c8010000f2
:020000040000fa
:04014400c8010000ee
:020000040000fa
:04014800c8010000ea
:020000040000fa
:04014c00c8010000e6
:020000040000fa
:04015000c8010000e2
:020000040000fa
:04015400c8010000de
:020000040000fa
:04015800c8010000da
:020000040000fa
:04015c00c8010000d6
:020000040000fa
:04016000c8010000d2
:020000040000fa
:04016400c8010000ce
:020000040000fa
:04016800c8010000ca
:020000040000fa
:04016c00c8010000c6
:020000040000fa
:04017000c8010000c2
:020000040000fa
:04017400c8010000be
:020000040000fa
:04017800c8010000ba
:020000040000fa
:04017c00c8010000b6
:020000040000fa
:04018000c8010000b2
:020000040000fa
:04018400c8010000ae
:020000040000fa
:04018800c8010000aa
:020000040000fa
:04018c00c8010000a6
:020000040000fa
:04019000c8010000a2
:020000040000fa
:04019400c80100009e
:020000040000fa
:04019800c80100009a
:020000040000fa
:04019c00c801000096
:020000040000fa
:0401a000c801000092
:020000040000fa
:0401a400c80100008e
:020000040000fa
:0401a800c80100008a
:020000040000fa
:0401ac00c801000086
:020000040000fa
:0401b000c801000082
:020000040000fa
:0401b400c80100007e
:020000040000fa
:0401b800c80100007a
:020000040000fa
:0401bc00c801000076
:020000040000fa
:0401c000c801000072
:020000040000fa
:0401c400c80100006e
:020000040000fa
:0401c800c80100006a
:020000040000fa
:0401cc00c801000066
:020000040000fa
:0401d000c801000062
:020000040000fa
:0401d400c80100005e
:020000040000fa
:0401d800c80100005a
:020000040000fa
:100200002f8020000eff20000e018800000000005b
:10021000000020000000e000020032000001200089
:1002200020028800140007005b0007000000e000c7
:1002300003003a0060b220000100200002003700f5
:100240000000200001002000810f7000010032003a
:1002500014000700000020000000e000020032004f
:1002600000000200000000002e0b02000000000051
:100270000040da000000fe004440a9000000200019
:100280000000e0000300320000002000a001880010
:100290004440a800000006008a1f78008b1f7800e9
:1002a0000000060091018800800478000000eb0047
:1002b0001a003700e284440032a0b4009905ba0065
:1002c000e284440032a0b4009906ba00e2844400fb
:1002d00032a0b4000006eb00476fde00fd07b2005d
:1002e000636ce10003003a00ebff07000000eb0045
:1002f0000a003700606ce10004003a00005deb008a
:100300008b05e900fdff3e00040037006168e10055
:10031000010032000086eb000b00070019c7ba008d
:100320001905ba000e04e00003003a000a00e000dc
:10033000e0ff3a0000000600fe07b2009e018800c0
:100340008a047800f5ff3700395dba008b05e900b3
:100350000c003200295dba008b05e900080032006c
:100360000c00e00003003a00e284440032a0b40034
:10037000f5ff370019ddba008b05e900faff3a00f6
:100380008904e800e184440032a0b40000000600c3
:100390000040da000000fe00000005000001be0081
:1003a000220007000470a70003f0a1006509b10056
:1003b000160032000d0035006828e1000600350007
:1003c000f0ff2f00f1ff27000300e00013003b00c7
:1003d0000100280000000500000040008180480066
:1003e0008502e900fcff3a0008003700f88f420060
:1003f00002003c008000eb00000005008100d100fd
:100400000080d3008502e800fcff3a000300e00012
:1004100002003b0060001000e080180000000600b1
:100420004f89de00820178007c023700c70ade00b7
:10043000f107b200f50fb20008003200e1cf420030
:10044000020032000170a00024000500810f70003e
:10045000010032000408050044000500810f70000f
:1004600002003a00140005008502e9000000400087
:1004700081c04800fcff3b000170a0002400050083
:10048000889fbe008a9fbe008c9fbe001b0020007c
:100490000202be0005866800060028000606660007
:1004a0004709de00f20fb200820032000243e8008a
:1004b00080003200c729de00f30fb2007d00320059
:1004c0000343e8007b003200f107b2000170a00096
:1004d000f507b2000570a000c708dd004903de0083
:1004e000868070004700dd00c72add004923de005a
:1004f000868272004722dd0003055100040350008c
:1005000085835800030031000000400081804800ce
:100510000a05e9008c1f78008a9fbe000400500085
:10052000858058000402420085824a000000400095
:10053000818048000005eb000004be006033b80075
:100540000406be000d48e10056003100110009000c
:100550004dccd8000c01b8000d02b80084814100d8
:1005600060824a008283530003045c0084845c0040
:1005700060055d000a00e00025003a008005780073
:100580000d40e10049003100880078000700780044
:10059000110009004d88d8000c01b8000d02b80008
:1005a0008481410060824a006003110083835b0004
:1005b00004045c00e0845c000900e00021003a00d3
:1005c0004f01be000300e0002b003200e301600099
:1005d000070673008c817100010032006400700016
:1005e0004200de004e5edd000c007000c258de00ee
:1005f00001e0a00083010700cf0178008180710035
:100600004f06be004f05be004f04be0000000600ae
:100610008c8343000d044c00e0844c0060054d00c9
:100620000000e9000a00e000d4ff32008c834300a0
:100630000d044c00e0844c0060054d000000e90012
:10064000ceff37000c0343008d834b0060044c0049
:10065000e0844c000000e9000900e000d8ff32000f
:100660000c0343008d834b0060044c00e0844c007d
:100670000000e900d2ff37004200de004e5edd00e0
:100680000c007000c258de0001e0a000cf0178002d
:100690000300e000daff320060001000e080180084
:1006a000d7ff3700f0ff2f00aaff3700f0ff2f0021
:1006b000b9ff37000404be002f0107008706780049
:1006c0000004fd008104fd002b0107000783660084
:1006d0000678a300030032000960a7000800be00ee
:1006e0002c0037000d78a300020032000800be0085
:1006f000280037000778a30026003a0001f0a10087
:1007000009f0a1000668a30003003200f1ff2700f2
:10071000f0ff2f00baff37000d68a300030032007e
:100720000800be008c807000b5ff37000768a3008a
:1007300007003a000648a30003003200f1ff27003b
:10074000f0ff2f00aeff37000d48a300030032007a
:100750006000b8008c807000a9ff37000748a30034
:100760000400320001f82700000020008c80700097
:10077000a3ff3700760107000004fd008104fd009f
:1007800002057800720107000802be008a017800a5
:1007900059ff37000160a0001202200002408800cb
:1007a00097ff37000100e000120032000500e00072
:1007b00010003200889fbe008a9fbe008c9fbe0042
:1007c0000006eb0001f8a3000300320060001000f7
:1007d000e08018000cf0a00005f8a3000300320030
:1007e00060021200e0821a000cf0a2008005eb000b
:1007f00041ff37006000b800020005000383680075
:100800000700280007036300470ade000480a100f8
:10081000c71ade000580a100f70f20000720e100c5
:10082000420032000728e10040003200889fbe00ed
:100830008a9fbe008c1f7800f107b200f307b20058
:100840000400e000640032000170a0000500e00038
:10085000680032000370a00085054200eb07b1007c
:100860000204b8000302b8008484440060854a0092
:10087000020ab800848444000a854a00030ab800ca
:1008800004054500040033000804d0008984d20028
:100890000a85d2008b05e9006158e1003d00350072
:1008a0000210200009016100030820008981610015
:1008b000f70720008783640008867300c84cde00b9
:1008c000c853dd00878474004855de000300e00053
:1008d0000600320082037600040032008904e8003a
:1008e00060054d000a88a3000c003a00f70f2000b5
:1008f0000758e10044003d000a70a100c75ddd001b
:100900000a8575008a007300090078004f06780098
:100910004f05be004f04be00000006000a05d100ce
:100920008984d3008b05e800f0ff3700881f78002a
:100930000604780090000700070278000001fd001f
:100940008101fd008c00070087027800850372009a
:100950000778a300050032000001fd008101fd00c1
:100960009f0007004f047800000006008503720016
:100970000748a30003003200f0ff2f00f1ff27001b
:10098000f8ff37000000200001f827008880700081
:10099000f4ff3700880178004848dd00808171004d
:1009a0004848de00c850dd0001007000c850de007d
:1009b000060478000b01780016000700888070009c
:1009c000d2ff37000500e0000500320017002000cc
:1009d0003a0007009dff370081037000f9ff3a00dd
:1009e000860078004f0678004f05be004f04be0019
:1009f0000000050083037100f9ff3200270020008a
:100a00002e00070094ff370001f827008680700051
:100a1000f4ff37000100e000260032006101110000
:100a20007810e10023003c006022b8007010e10063
:100a30000400350080027800010078008000eb009f
:100a4000700151000200e000090034007003110041
:100a5000062add00822ade008603dd00878272001e
:100a60000200de00860bdd00070070008208de0059
:100a700084817100f4ff2700048262008481710088
:100a800004002800848262006102600005f0a60074
:100a90000000060004827100070032000000e80038
:100aa000e0804800000006000002be006000b800c0
:100ab000efff37006000b80000000600889fbe000e
:100ac0000004eb006138e10016003a000100e0008c
:100ad00008003a00c800de004800dd008800200061
:100ae0000100e00003003a00c800de004800dd001d
:100af000680444008184cf00e98454000600340077
:100b00008908dd00f08314008703de008780700011
:100b10000900dd0009044400610214004f04be0016
:100b2000000006000300e00008003a00c811de00e3
:100b30004811dd00880020000300e00003003a00b7
:100b4000c811de004811dd00680444008384cf0032
:100b5000e9845400060034008919dd00f083140094
:100b60008713de00878171000911dd00090444004c
:100b7000e1021400e9ff37002700200001f0a70080
:100b800017002000470bde00f60fb2000400320011
:100b90000643e8000a0032004702b30000000600e6
:100ba00001037800f607b2000603700002003a0065
:100bb0000703b300000006008702b3000000060030
:100bc00001037800f607b20006037000020032004d
:100bd0000770a000000006000760a00000000600eb
:100be0000478a300040032000578a300030032005b
:100bf0000168a30001003a000200be000160a000ed
:100c00000000060081017000270032008002eb0026
:100c100001f8a3000300320060001000e08018001b
:100c200015002000f40720000202420020003400da
:100c3000f703200087036000060420000003630020
:100c400002082000000161004700de00c909dd0044
:100c500000807100c708de000600e00008003200d6
:100c600087037100060032001000b0000180b00060
:100c70000188a30002003200c108de000402e8007f
:100c8000f107b200f30f20000320e10003003d0054
:100c90004722dd00810072002900370001f827009b
:100ca0000000eb00260037006000b80000000600de
:100cb000680212007f20e100020034006000b800ea
:100cc0001f0037006011b8007020e10004003500fb
:100cd00080017800010078008000eb007002520073
:100ce0000400e00009003400f00312000719dd00e1
:100cf0008419de000703dd00868171000400de0038
:100d0000070bdd00060070008408de00f7ff2700f7
:100d100083836300870371000600280003036300d8
:100d2000070032000700e00003003a0061016000a4
:100d300002817300020032001000b0000180b00098
:100d40000500a6000000060001f0a000000006005b
:100d50004f0ade004709de00f107b200f20fb200d1
:100d60000b003200f207b1000170a000c708dd00df
:100d7000c901de00838070004700dd000400a6008a
:100d80000000060060001000e0801800000006006f
:100d9000810f700001003a00000006008182cf0040
:100da0000500e00010003e008082cf00ee8242008d
:100db0007028e1000400390007003e008000780040
:100dc0000000eb000e003700708312008600de008a
:100dd0000500dd000a003700708352008600dd0048
:100de0000000eb0006003700e28252008508dd00bb
:100df000708312000603de00868070000500dd00af
:100e00007507b0000501ea000400a6000000060016
:100e100060001000e080180000000600881f7800c5
:100e2000030478000300e00007003d0060001000ac
:100e3000e080180060011900e081190002003b0009
:100e400001f02d00030037000400070008f0a700a0
:100e500001f0a0004f04780000000600889fbe004b
:100e60008a9fbe000082700004027100048271003b
:100e7000260032000004be000200be006011b8006f
:100e80006b092000950220000182cf000a00390082
:100e90000541b1000082cf00070039000541b100d3
:100ea0000982cf00040039000541b1000882cf005b
:100eb000010039000541b100054252001200320024
:100ec0000a003b0082817100610164008100d10051
:100ed0000080d3008984d3000884d3008b05e80008
:100ee0000442e800f7ff3a00070037000804440016
:100ef00089844c0000004800818048008b05e9008f
:100f00000442e900f9ff3a00030007004f05be0064
:100f10004f04be00000006008100200061805500e3
:100f20000b003d000b00200061fe2f000100e100de
:100f30001d00340082817100610164008904d100c8
:100f40000884d3000000e800faff3a007100200096
:100f500061006400030070000200600009003200bc
:100f600061044400e0844c000988a50005003200bb
:100f70008b05e8006808e10002003a008904d1000e
:100f80000884d300f20f20000258e10005003d0064
:100f9000c75ddd00f907b2008980750008007800a0
:100fa000000006000bf827008b0078000000050009
:020000040000fa
:100fb0008460a9000021ef0010088800e380600031
:100fc000c408dd00f0fc2f000401b60000807000b2
:100fd0002008880005e1a8000000060084c0a900e0
:100fe0000621ef0060088800e3806000c408dd008f
:100ff000f0fc2f001001b60000807000800888000f
:1010000011e1a8000000060084e0a9000a21ef0019
:1010100070088800e3806000c408dd00f0fc2f0049
:101020001201b600008070009008880013e1a8004b
:101030000000060086a0a9001421ef00d008880057
:10104000e3806000c408dd00f0fc2f001e01b60044
:1010500000807000f00888001fe1a8000000060072
:1010600086c0a9001821ef00e0088800e380600036
:10107000c408dd00f0fc2f002001b60000807000e5
:101080000009880021e1a800000006000400fa0021
:10109000889fbe000004780030022000808f50003e
:1010a0001c003400c0112000808f500047003c001d
:1010b0000200200003102400190020006108b9007c
:1010c000c2bf9f00d3bf9f00d5fc07004fb9970058
:1010d000dfb99700eafc070062662600634e240031
:1010e000c6fd0700adfc0700e30f540019003200f5
:1010f000e30f540024003400e40f54004b0032008e
:10110000e50f54003c0032004f04be000080fa009e
:10111000000006000200200003f823008004eb001a
:101120006108b900c2bf9f00d3bf9f00bcfc07008d
:101130004fb99700dfb99700d1fc0700626626001f
:10114000634e2400adfd070094fc0700e30f54003c
:10115000e7ff3a0084e0a9000a21ef007008880048
:10116000c44cdd00f0fc2f001201b60000807400ba
:101170009008880013e1a8004f04be000080fa0028
:1011800000000600e3ff3700e10f54003400320096
:10119000e20f5400dcff3a0084c0a9000621ef00f2
:1011a00060088800c44cdd00f0fc2f001001b60080
:1011b000008074008008880011e1a8004f04be0080
:1011c0000080fa0000000600d2ff3700308e2000b9
:1011d000808f500004003c000200200003282400ff
:1011e00029002000b5ff370002002000033824004a
:1011f00039002000b1ff370086c0a9001821ef0098
:10120000e0088800c44cdd00f0fc2f002001b6008f
:10121000008074000009880021e1a8004f04be008e
:101220000080fa0000000600baff370086a0a9007f
:101230001421ef00d0088800c44cdd00f0fc2f0022
:101240001e01b60000807400f00888001fe1a800ad
:101250004f04be000080fa0000000600adff37001a
:101260008460a9000021ef0010088800c44cdd0054
:10127000f0fc2f000401b6000080740020088800f4
:1012800005e1a8004f04be000080fa00000006003f
:10129000a0ff3700e30f50000600320009003400c1
:1012a000e40f500013003200e50f5000150032002b
:1012b0000000060084e0ab00feff320084e0a900dd
:1012c00000000600e10f500006003200e20f50005f
:1012d000f7ff3a0084c0ab00feff320084c0a900d3
:1012e000000006008460ab00feff32008460a900ad
:1012f0000000060086a0ab00feff320086a0a90019
:101300000000060086c0ab00feff320086c0a900c8
:1013100000000600881f78000004780008007800ac
:101320005aff070008007800daff07004f04780032
:101330000000060022a2a8002342a90030002000dd
:101340002222b70030fe2f002202b6008001b30037
:101350001011880021e2a80000000600b000200063
:10136000f010880017e2a8001942a800f0f32f003f
:101370001802b6000070a000c01088008f00a800fe
:10138000000006002022ab00feff3a00020c200005
:10139000ef0f500001003c0002082000f30028007d
:1013a000030060000d0033000000410020118800a0
:1013b000114078000004e000070032002022ab005a
:1013c000feff3a000000fb00201188005140780029
:1013d0000004e000f9ff3a00000006000000e90008
:1013e00003ff2f00008071000000e80000004100b2
:1013f00020118800114078000004e000efff3a005f
:10140000f5ff37000000fa00881f78000f0478000d
:101410000181e8000200a10082874700880278006d
:101420000100e00007003400880178000001eb00b3
:1014300004c2b300845978000201e800810f510012
:10144000fcff3a0085007800ceff0700880778008f
:101450004f0478000080fa00000006002022ab0054
:10146000feff3a00010c2000ef0f50000600340090
:10147000f2002800020060000700330000804000f6
:10148000201188000000060001082000f20028005a
:1014900002006000f9ff3b000000e90002ff2f009e
:1014a000000071000000e80000804000201188006a
:1014b00000000600f4ff3700904078000104e000cf
:1014c000050032008100fb00d1108800d040780078
:1014d0000104e000fbff3a0000000600e687470039
:1014e0008e1f780066875700001f7800010f780074
:1014f0000100e0001d003a006502410041002000ab
:10150000d3cc2c005fb897000303b800433bde0048
:101510006a33b9000600500005c3b30005624000fd
:101520008100e9005fbb97000333b8004338de0059
:10153000d0bf9f005fb897000000e000f1ff3a00c5
:101540000100e000060035000000eb0003c2b3001c
:10155000035978000000e800810f5000fcff3400c0
:101560004f0778006f00b10000000600020078000d
:10157000f1c4b3000158780061c5b3000148780098
:1015800020c5b3002041980060c4b30030419800ea
:10159000c0c4b300404198004f0778006f00b1000d
:1015a00000000600f1ff3700f00005008000eb00ae
:1015b00070014000010978007201400001097800c3
:1015c000740040000108780000000600700140002f
:1015d0008081eb00f4002000920f1200090032001d
:1015e000f201400013004000014878001300e800b9
:1015f000110009000400d800810978001209e800f0
:101600008001eb000300780000000600700140003c
:101610008001eb001200e0000a003200f4014000fb
:1016200013004000904878001300e800f400200008
:10163000110009000400d800810978001209e900ae
:0c164000130020000300780000000600ea
:020000040000fa
:10164c000008000002000000000000000000000084
:020000040000fa
:04165c00ffff370055
:020000040000fa
:0200000401f009
:04000000f4bf000049
:020000040000fa
:0200000401f009
:04000400ff7f00007a
:020000040000fa
:0200000401f009
:04000800ffff0000f6
:020000040000fa
:0200000401f009
:04001400ffffff00eb
:020000040000fa
:0200000401f009
:04001800ffff0000e6
:00000001FF
