:020000040000fa
:080000000001040000000000f3
:020000040000fa
:0400080018020000da
:020000040000fa
:04000c0018020000d6
:020000040000fa
:0400100018020000d2
:020000040000fa
:0400140018020000ce
:020000040000fa
:0400180018020000ca
:020000040000fa
:04001c0018020000c6
:020000040000fa
:0400200018020000c2
:020000040000fa
:0400240018020000be
:020000040000fa
:0400280018020000ba
:020000040000fa
:04002c0018020000b6
:020000040000fa
:0400300018020000b2
:020000040000fa
:0400340018020000ae
:020000040000fa
:0400380018020000aa
:020000040000fa
:04003c0018020000a6
:020000040000fa
:0400400018020000a2
:020000040000fa
:04004400180200009e
:020000040000fa
:04004800180200009a
:020000040000fa
:04004c001802000096
:020000040000fa
:040050001802000092
:020000040000fa
:04005400180200008e
:020000040000fa
:04005800180200008a
:020000040000fa
:04005c001802000086
:020000040000fa
:040060001802000082
:020000040000fa
:04006400180200007e
:020000040000fa
:04006800180200007a
:020000040000fa
:04006c001802000076
:020000040000fa
:040070001802000072
:020000040000fa
:04007400180200006e
:020000040000fa
:04007800180200006a
:020000040000fa
:04007c001802000066
:020000040000fa
:040080001802000062
:020000040000fa
:04008400180200005e
:020000040000fa
:04008800d40100009f
:020000040000fa
:04008c00f601000079
:020000040000fa
:040090001802000052
:020000040000fa
:04009400180200004e
:020000040000fa
:04009800180200004a
:020000040000fa
:04009c001802000046
:020000040000fa
:0400a0001802000042
:020000040000fa
:0400a400180200003e
:020000040000fa
:0400a800180200003a
:020000040000fa
:0400ac001802000036
:020000040000fa
:0400b0001802000032
:020000040000fa
:0400b400180200002e
:020000040000fa
:0400b800180200002a
:020000040000fa
:0400bc001802000026
:020000040000fa
:0400c0001802000022
:020000040000fa
:0400c400180200001e
:020000040000fa
:0400c800180200001a
:020000040000fa
:0400cc001802000016
:020000040000fa
:0400d0001802000012
:020000040000fa
:0400d400180200000e
:020000040000fa
:0400d800180200000a
:020000040000fa
:0401080018020000d9
:020000040000fa
:04010c0018020000d5
:020000040000fa
:0401100018020000d1
:020000040000fa
:0401140018020000cd
:020000040000fa
:0401180018020000c9
:020000040000fa
:04011c0018020000c5
:020000040000fa
:0401200018020000c1
:020000040000fa
:0401240018020000bd
:020000040000fa
:0401280018020000b9
:020000040000fa
:04012c0018020000b5
:020000040000fa
:0401300018020000b1
:020000040000fa
:0401340018020000ad
:020000040000fa
:0401380018020000a9
:020000040000fa
:04013c0018020000a5
:020000040000fa
:0401400018020000a1
:020000040000fa
:04014400180200009d
:020000040000fa
:040148001802000099
:020000040000fa
:04014c001802000095
:020000040000fa
:040150001802000091
:020000040000fa
:04015400180200008d
:020000040000fa
:040158001802000089
:020000040000fa
:04015c001802000085
:020000040000fa
:040160001802000081
:020000040000fa
:04016400180200007d
:020000040000fa
:040168001802000079
:020000040000fa
:04016c001802000075
:020000040000fa
:040170001802000071
:020000040000fa
:04017400180200006d
:020000040000fa
:040178001802000069
:020000040000fa
:04017c001802000065
:020000040000fa
:040180001802000061
:020000040000fa
:04018400180200005d
:020000040000fa
:04018800d40100009e
:020000040000fa
:04018c00f601000078
:020000040000fa
:040190001802000051
:020000040000fa
:04019400180200004d
:020000040000fa
:040198001802000049
:020000040000fa
:04019c001802000045
:020000040000fa
:0401a0001802000041
:020000040000fa
:0401a400180200003d
:020000040000fa
:0401a8001802000039
:020000040000fa
:0401ac001802000035
:020000040000fa
:0401b0001802000031
:020000040000fa
:0401b400180200002d
:020000040000fa
:0401b8001802000029
:020000040000fa
:0401bc001802000025
:020000040000fa
:0401c0001802000021
:020000040000fa
:0401c400180200001d
:020000040000fa
:0401c8001802000019
:020000040000fa
:0401cc001802000015
:020000040000fa
:0401d0001802000011
:020000040000fa
:0401d400180200000d
:020000040000fa
:0401d8001802000009
:020000040000fa
:100200004f8a20000eff20000e0188000000000031
:10021000000020000000e000020032000001200089
:100220002002880014000700830007000000e0009f
:1002300003003a00204421000100200002003700a2
:100240000000200001002000810f7000010032003a
:1002500014000700000020000000e000020032004f
:1002600000000200000000002a0e02000000000052
:100270000040da000000fe004440a900a001200078
:100280000000e0000300320000002000a001880010
:100290004440a800000006008a1f78008b1f7800e9
:1002a0000000060091018800800478000000eb0047
:1002b0001a003700e284440032a0b4009905ba0065
:1002c000e284440032a0b4009906ba00e2844400fb
:1002d00032a0b4000006eb00476fde00fd07b2005d
:1002e000636ce10003003a00ebff07000000eb0045
:1002f0000a003700606ce10004003a00005deb008a
:100300008b05e900fdff3e00040037006168e10055
:10031000010032000086eb000b00070019c7ba008d
:100320001905ba000e04e00003003a000a00e000dc
:10033000e0ff3a0000000600fe07b2009e018800c0
:100340008a047800f5ff3700395dba008b05e900b3
:100350000c003200295dba008b05e900080032006c
:100360000c00e00003003a00e284440032a0b40034
:10037000f5ff370019ddba008b05e900faff3a00f6
:100380008904e800e184440032a0b40000000600c3
:10039000000000000000000000000000000000005d
:1003a00000000000000000003600f800809fbe0042
:1003b000829fbe00849fbe00869fbe003400f8006e
:1003c00000002000a00188008700a9000e0507009a
:1003d0003400f9004f03be004f02be004f01be00c3
:1003e0004f00be003600f900004006003600f8005d
:1003f000809fbe00829fbe00849fbe00869fbe007d
:100400003400f80000002000a00188008720a90027
:100410000d0507003400f9004f03be004f02be0077
:100420004f01be004f00be003600f900004006003c
:100430000040da000000fe0000000500140020006b
:10044000ad033700f4ff2f00ab0337000001be00ff
:100450003f0007000470a70003f0a1006509b10088
:10046000160032000d0035006828e1000600350056
:10047000f0ff2f00f1ff27000300e00013003b0016
:1004800001002800000005000000400081804800b5
:100490008502e900fcff3a0008003700f88f4200af
:1004a00002003c008000eb00000005008100d1004c
:1004b0000080d3008502e800fcff3a000300e00062
:1004c00002003b0060001000e08018000000060001
:1004d0000001be001e0007000470a70003f0a10089
:1004e00003f8a30013003a006509b10010003200c0
:1004f000090035006928e1000200350001002800ec
:100500000000050000004000818048008502e900ed
:10051000fcff3a0000000600f88f4200050035009d
:100520008100d1000080d3008502e800fcff3a0082
:10053000000006008000eb00000005004f89de008f
:1005400082017800870337006011b80095033700f7
:10055000c70ade00f107b200f50fb2000800320052
:10056000e1cf4200020032000170a000240005002b
:10057000810f7000010032000408050044000500ee
:10058000810f700002003a00140005008502e900a6
:100590000000400081c04800fcff3b000170a0004b
:1005a0002400050007f82700078361000638e100f2
:1005b00004003a00f7072000878361008703710079
:1005c00001003a0003f0a200889fbe008a9fbe008f
:1005d0008c9fbe00470ade000480a100c71ade001f
:1005e0000580a1000700280007856000878561005d
:1005f000f70f20000720e1009e0032000728e100ed
:100600009c003200010678000400e000b4003200d3
:10061000f7072000878060000170a0000500e0005f
:10062000c0003200f7072000878161000370a0003e
:10063000050652000f003a000b50e1000b0032009b
:100640000308e10002003a000200e1007e003200ef
:100650000204500083845800040031000001fd00b2
:100660008101fd008402fd008a05fd006044b800a0
:10067000210037000520e10005003d000001fd00dc
:100680008101fd008402fd008a05fd00050652007f
:100690007a60e100050035000170a1004722dd000d
:1006a000848070008a807000630037006044b80066
:1006b000ef02660007ff2f00070666000500e00056
:1006c00006003400f08312008714dd000511de00ff
:1006d000071bdd00060171008519de007060e10076
:1006e00005003500090478008204780003017800d1
:1006f0008001eb00700656000b50e10003003a0049
:1007000002004000838048000400370060041400a9
:10071000e0841c0002005800838058000188a30078
:10072000060032008100d1000080d3008984d3000c
:100730000884d3000402e800270037000178a300f2
:1007400025003a000100e000030032008186cf005e
:10075000698656000a0037008c0020000000e00087
:1007600004003a0009007800880478000004eb00d7
:10077000700252008086cf000d0646000c06e9008c
:100780007060e10006003500800078000900780004
:10079000880478000004eb007006560070025200d6
:1007a0000c00e0000c0034008c08dd00f0031600a3
:1007b0000703de00868070000c00dd00074bde00c2
:1007c000060070008c4cdd000743de008684740058
:1007d0000c44dd000c0252006120e10020003500d5
:1007e000610160000700280087816400f7ff27008f
:1007f00087836400070374000300e00006003200f2
:1008000082037300040032000000e800e08048002a
:100810000188a3000e003a00f70f20000720e10036
:100820004a003d000170a1004722dd0081007200f6
:100830008a8070000000be004f06be004f05be005b
:100840004f04be00000006006000b800faff370049
:100850008100d1000080d3000402e800eeff3700e1
:100860000401780089017400a10107008a807000ea
:10087000f1ff3700f7010700070278000001fd00d3
:100880008101fd00f30107008702780085037200f3
:100890000778a300040032000001fd008101fd0083
:1008a00006020700e4ff3700850362000768a30023
:1008b000080032000b50e10003003200f0ff2f006f
:1008c000f1ff2700dcff37000001fd008101fd0082
:1008d000d9ff37000468a300d7ff3200faff3700c2
:1008e000f8ff2700888360000b003a000000e0005a
:1008f00009003a008303640082837300020032001f
:100900000200be00ccff37000b50e100ceff3a00e2
:100910000200be00c8ff3700140020008100640000
:100920003eff3700f8ff27008883610004003a008b
:100930000200e00002003a008c007800beff3700a1
:10094000150020008301640039ff370001f82700fb
:100950000000200081007500b7ff3700889fbe00af
:100960008a9fbe008c9fbe001b0020000202be00ba
:100970000586680006002800060666004709de00b6
:10098000f20fb200820032000243e8008000320021
:10099000c729de00f30fb2007d0032000343e800f8
:1009a0007b003200f107b2000170a000f507b20031
:1009b0000570a000c708dd004903de0086807000d6
:1009c0004700dd00c72add004923de008682720071
:1009d0004722dd00030551000403500085835800c1
:1009e0000300310000004000818048000a05e90052
:1009f0008c1f78008a9fbe0004005000858058003c
:100a00000402420085824a000000400081804800c4
:100a10000005eb000004be006033b8000406be0011
:100a20000d48e10056003100110009004dccd800fe
:100a30000c01b8000d02b8008481410060824a00b8
:100a40008283530003045c0084845c0060055d00c5
:100a50000a00e00025003a00800578000d40e10022
:100a60004900310088007800070078001100090073
:100a70004d88d8000c01b8000d02b80084814100f7
:100a800060824a006003110083835b0004045c0001
:100a9000e0845c000900e00021003a004f01be0044
:100aa0000300e0002b003200e30160000706730042
:100ab0008c81710001003200640070004200de0091
:100ac0004e5edd000c007000c258de0001e0a000a8
:100ad00083010700cf017800818071004f06be00be
:100ae0004f05be004f04be00000006008c8343008b
:100af0000d044c00e0844c0060054d000000e9004e
:100b00000a00e000d4ff32008c8343000d044c0047
:100b1000e0844c0060054d000000e900ceff370086
:100b20000c0343008d834b0060044c00e0844c00b8
:100b30000000e9000900e000d8ff32000c03430088
:100b40008d834b0060044c00e0844c000000e90001
:100b5000d2ff37004200de004e5edd000c00700068
:100b6000c258de0001e0a000cf0178000300e000e1
:100b7000daff320060001000e0801800d7ff370075
:100b8000f0ff2f00aaff3700f0ff2f00b9ff37005a
:100b90000404be002f010700870678000004fd0052
:100ba0008104fd002b010700078366000678a3007f
:100bb000030032000960a7000800be002c003700c7
:100bc0000d78a300020032000800be0028003700a4
:100bd0000778a30026003a0001f0a10009f0a10067
:100be0000668a30003003200f1ff2700f0ff2f008a
:100bf000baff37000d68a300030032000800be00f2
:100c00008c807000b5ff37000768a30007003a002a
:100c10000648a30003003200f1ff2700f0ff2f0079
:100c2000aeff37000d48a300030032006000b8009b
:100c30008c807000a9ff37000748a3000400320031
:100c400001f82700000020008c807000a3ff37000f
:100c5000760107000004fd008104fd000205780014
:100c6000720107000802be008a01780059ff3700b0
:100c70000160a000120220000245880097ff3700a3
:100c80000100e000120032000500e0001000320018
:100c9000889fbe008a9fbe008c9fbe000006eb00ae
:100ca00001f8a3000300320060001000e08018008b
:100cb0000cf0a00005f8a30003003200600212004f
:100cc000e0821a000cf0a2008005eb0041ff370023
:100cd0006000b800020005000383680007002800d8
:100ce00007036300470ade000480a100c71ade0084
:100cf0000580a100f70f20000720e100420032002c
:100d00000728e10040003200889fbe008a9fbe0095
:100d10008c1f7800f107b200f307b2000400e00076
:100d2000640032000170a0000500e000680032009d
:100d30000370a00085054200eb07b1000204b80073
:100d40000302b8008484440060854a00020ab800a7
:100d5000848444000a854a00030ab800040545005b
:100d6000040033000804d0008984d2000a85d20030
:100d70008b05e9006158e1003d00350002102000bc
:100d8000090161000308200089816100f707200044
:100d90008783640008867300c84cde00c853dd00fa
:100da000878474004855de000300e000060032002e
:100db00082037600040032008904e80060054d00db
:100dc0000a88a3000c003a00f70f20000758e10042
:100dd00044003d000a70a100c75ddd000a85750072
:100de0008a007300090078004f0678004f05be00a6
:100df0004f04be00000006000a05d1008984d3001c
:100e00008b05e800f0ff3700881f780006047800a3
:100e100090000700070278000001fd008101fd003d
:100e20008c00070087027800850372000778a30012
:100e3000050032000001fd008101fd009f00070058
:100e40004f04780000000600850372000748a300e5
:100e500003003200f0ff2f00f1ff2700f8ff3700fa
:100e60000000200001f8270088807000f4ff3700a0
:100e7000880178004848dd00808171004848de0024
:100e8000c850dd0001007000c850de000604780084
:100e90000b0178001600070088807000d2ff370031
:100ea0000500e00005003200170020003a000700ae
:100eb0009dff370081037000f9ff3a00860078003b
:100ec0004f0678004f05be004f04be00000005002d
:100ed00083037100f9ff3200270020002e00070075
:100ee00094ff370001f8270086807000f4ff370078
:100ef0000100e00026003200610111007810e100dd
:100f000023003c006022b8007010e10004003500ae
:100f100080027800010078008000eb007001510031
:100f20000200e0000900340070031100062add0011
:100f3000822ade008603dd00878272000200de0066
:100f4000860bdd00070070008208de0084817100de
:100f5000f4ff2700048262008481710004002800ed
:100f6000848262006102600005f0a60000000600b5
:100f700004827100070032000000e800e0804800b1
:100f8000000006000002be006000b800efff37005e
:100f90006000b80000000600889fbe000004eb005f
:100fa0006138e10016003a000100e00008003a0054
:100fb000c800de004800dd00880020000100e000dd
:100fc00003003a00c800de004800dd006804440069
:100fd0008184cf00e9845400060034008908dd00d4
:100fe000f08314008703de00878070000900dd00b5
:100ff00009044400610214004f04be000000060012
:101000000300e00008003a00c811de004811dd00ce
:10101000880020000300e00003003a00c811de0051
:101020004811dd00680444008384cf00e984540043
:10103000060034008919dd00f08314008713de00f8
:10104000878171000911dd0009044400e1021400e8
:10105000e9ff37002700200001f0a700170020005b
:10106000470bde00f60fb200040032000643e80032
:101070000a0032004702b3000000060001037800b6
:10108000f607b2000603700002003a000703b3003f
:10109000000006008702b30000000600010378008c
:1010a000f607b20006037000020032000770a000cd
:1010b000000006000760a000000006000478a300fe
:1010c000040032000578a300030032000168a30089
:1010d00001003a000200be000160a000000006000e
:1010e00081017000270032008002eb0001f8a300ac
:1010f0000300320060001000e0801800150020009e
:10110000f40720000202420020003400f703200010
:10111000870360000604200000036300020820002b
:10112000000161004700de00c909dd000080710098
:10113000c708de000600e0000800320087037100e7
:10114000060032001000b0000180b0000188a3004a
:1011500002003200c108de000402e800f107b2001c
:10116000f30f20000320e10003003d004722dd00d3
:10117000810072002900370001f827000000eb0011
:10118000260037006000b800000006006802120068
:101190007f20e100020034006000b8001f0037002b
:1011a0006011b8007020e100040035008001780073
:1011b000010078008000eb00700252000400e000a3
:1011c00009003400f00312000719dd008419de0065
:1011d0000703dd00868171000400de00070bdd00df
:1011e000060070008408de00f7ff27008383630099
:1011f0008703710006002800030363000700320024
:101200000700e00003003a00610160000281730002
:10121000020032001000b0000180b0000500a600fe
:101220000000060001f0a000000006004f0ade00ea
:101230004709de00f107b200f20fb2000b003200e6
:10124000f207b1000170a000c708dd00c901de008f
:10125000838070004700dd000400a6000000060047
:1012600060001000e080180000000600810f700090
:1012700001003a00000006008182cf000500e00076
:1012800010003e008082cf00ee8242007028e10014
:101290000400390007003e00800078000000eb00e9
:1012a0000e003700708312008600de000500dd00ae
:1012b0000a003700708352008600dd000000eb005a
:1012c00006003700e28252008508dd0070831200bc
:1012d0000603de00868070000500dd007507b000a3
:1012e0000501ea000400a6000000060060001000ee
:1012f000e080180000000600889fbe008a9fbe00a4
:10130000841f78007c0007004f0078001100330034
:10131000f0ff2f00838f6c0006003b000405650082
:101320000a00a7000800370009f0a60010002000fe
:1013300008003700820f5400838f5c0003003900df
:101340001000200001003e000000200009f0a7006e
:101350000000ea004f05be004f04be000000e000a0
:1013600000000600881f7800030478000300e000f6
:1013700007003d0060001000e080180060011900c7
:10138000e081190002003b0001f02d00030037004e
:101390000400070008f0a70001f0a0004f04780047
:1013a00000000600889fbe008a9fbe000082700079
:1013b0000402710004827100260032000004be00a5
:1013c0000200be006011b8006b09200095022000e9
:1013d0000182cf000a0039000541b1000082cf0030
:1013e000070039000541b1000982cf00040039002f
:1013f0000541b1000882cf00010039000541b1006c
:1014000005425200120032000a003b008281710046
:10141000610164008100d1000080d3008984d30081
:101420000884d3008b05e8000442e800f7ff3a0087
:10143000070037000804440089844c00000048007d
:10144000818048008b05e9000442e900f9ff3a0079
:10145000030007004f05be004f04be000000060059
:1014600081002000618055000b003d000b00200032
:1014700061fe2f000100e1001d0034008281710037
:10148000610164008904d1000884d3000000e800f1
:10149000faff3a0071002000610064000300700050
:1014a000020060000900320061044400e0844c0046
:1014b0000988a500050032008b05e8006808e100f6
:1014c00002003a008904d1000884d300f20f200002
:1014d0000258e10005003d00c75ddd00f907b200dc
:1014e0008980750008007800000006000bf82700ce
:1014f0008b007800000005000004be0014fc07000b
:101500000003be000405be000200be0010fc070080
:10151000844f750000000600154580000001eb00b7
:101520000500e00032003200050178008001eb0088
:1015300003027800830078000200370082017800ff
:101540000601780012037800800f530009003a006a
:101550000281e8000300e00003003200120078007e
:101560009001980022003700120078001045880092
:101570001f003700800f5300060036000100e00016
:1015800002003200910f13000200360003027800bf
:1015900082007800120390000600e000e7ff3a00a6
:1015a0000001eb000100e000110032008101780031
:1015b0005301780011031000e40f530006003600b9
:1015c0008008780000804100800178008699e90059
:1015d0008209780000017800818f520002003a00f1
:1015e0001245880001003700120298000181e800ce
:1015f00002007800000006000000e0001800320041
:101600000081e900114580000100e0001200320075
:101610009201780003024000848f500006003a00d7
:101620001102900004087800918141000389e800cc
:101630001245880000000600110278008482e8004c
:1016400085824000850f510003003a0084814100eb
:101650008388e80000000600010878001245880031
:1016600000000600889fbe000004be00080078004d
:1016700006000700000044008900780026000700eb
:10168000080078004f04be000000060080007800cb
:10169000040037003104e00002003a00000051006d
:1016a00000000600010178000108a300f9ff3a00dc
:1016b0008101780031017800f4ef2f00020242002e
:1016c0000281ea00020162000408280004016100ae
:1016d000f7ff320083007800010178003104e00058
:1016e000fdff3a0000005100000006008101780073
:1016f0000002780030417800b14f510002003a00fa
:101700000204e000f9ff3a009480fb001380fb0024
:101710000080500000000600881f78000004780058
:101720000800780003000700080078004f047800e4
:101730000000060001017800800178000082680046
:101740000408a3000500320013003700324078007f
:10175000805978000004e000140032000302780091
:101760000208a300f9ff3a000300780001003700e7
:101770000318780082007800b2017800f5ef2f009e
:10178000838242000382ea00048262000508280086
:1017900005026200f6ff3200000278003141780055
:1017a000025878000204e000fbff3a0004007800d1
:0417b000000006002f
:020000040000fa
:1017b4004d4300005245000046000000244d000047
:1017c40043460000424b00002c0000002020000093
:1017d4002020000020200000202000002020000005
:0417e4000000000001
:020000040000fa
:1017e80050168000610060000000a20051168000c1
:1017f8000100a10081007000511688000000060059
:10180800881f7800180320001802ab000a00320075
:10181800e1108000a0802000cb030700e10f40000a
:10182800f9ff3a002022ab00feff3a002811880099
:101838001802ab00f6ff3a004f04780000000600db
:101848000200fa001922ab000a003a001808e20068
:10185800080032008f80e90040812000f60307006d
:10186800eff897000100fb00d01088001922ab00a8
:10187800f6ff32000080fa00000006001822ab00d4
:10188800060032002022ab00feff3a0020032000b1
:1018980020118800daff07001822a90000000600be
:1018a8000200fa00889fbe008a9fbe00a022a800fe
:1018b8008f00a900d2ff07008f00a800efff0700e4
:1018c800480320000e08e20013003200ea805700a7
:1018d800a0802000d8030700eff09700e0812000e7
:1018e8000f030700e10f5000f6ff3a00a1bd2800e2
:1018f800008220007bff0700000578000a00e00056
:101908003c0032002022ab00feff3a00281188007c
:101918000e08e200edff3a00a002ab00feff320025
:10192800001480008000eb0005fb070092212300d3
:1019380083d42300e6fc070002002000031f2400d4
:1019480016fb07008004780001047800090178007c
:1019580088017800004080001140800018fb0700d3
:101968000040880011408800101480008000eb00bf
:10197800f3fa070002002000a3ef2300d4fc0700bd
:10198800020020008324240004fb07000001be009d
:10199800204080003140800009fb0700204088007b
:1019a800314088000828ec001ac0b300020020006b
:1019b800031724000802be000500780084007800a0
:1019c8009efa07000000e0001c0034006105650075
:1019d8000a054500501680000010a100000075009f
:1019e800501688004f05be004f04be000080fa0064
:1019f80000000600608220002303070080047800ae
:101a0800200e80008a007800cdfa07000005be008d
:101a18006148b900c7fa0700f226210033b0230055
:101a2800abfc07000001be000a00be00a8fc0700ce
:101a3800a5fa0700c00e8800a2ff37000045eb009a
:101a4800610565000a054500501680000010a100d8
:101a580000007500501688004f05be004f04be00f8
:101a68000080fa0000000600e2ff3700881f7800b7
:101a78000104780004030700000c78004f04780084
:101a8800000006001600fa00889fbe008a9fbe006c
:101a98008c9fbe000004be0049009000cf80de008d
:101aa800a4fa07000005be000001be003900be0010
:101ab800a8fb070080067800010678000a01be002e
:101ac8001900be00a3fb0700800578000105780017
:101ad800e0fd2f000080470081be28000a000900b1
:101ae800315878007780570081be28000a00090025
:101af8003158780033002000e2fd2f000f0141002b
:101b08000c02be0005007800840078003d01070043
:101b18008004780013002000778157000a02be0075
:101b28000500780084007800360107000005780079
:101b380000be280007000900305c78008800b1006a
:101b48000800be00c5fe070008007800cdfe0700ab
:101b580000004400c1c2b300015878008044eb0083
:101b6800094878008a00780008007800bbfe070062
:101b780008007800c3fe070000044400a0c2b300b8
:101b8800005c7800094c78004f06be004f05be0087
:101b98004f04be000080fa00000006001800fa009a
:101ba8000180200078805700b6ff070000802000e1
:101bb800040009000018eb00f8805700408120005d
:101bc800f4020700e10f4000050032008f20a90051
:101bd8001bff07008f20a8000080fa000000060005
:101be8002022ab00feff3a003003200020118800bd
:101bf8000080fa0000000600f9ff3700889fbe0049
:101c0800e8882000098a20009800e8000800780089
:101c180001187800908f500005003d0066044400cc
:101c2800890f5400f8ff3a004f04be000000060078
:101c38002800900000000100000ceb00660444003e
:101c4800890f5400f0ff3a00f7ff37001e00fa0032
:101c5800881f780018002000f84088008a28ef00c4
:101c68008c28ef00c602a900c622a9008e28ef0022
:101c78008844880040c52000904488009428ef00dc
:101c8800800c2000b044880021dd2000c144880079
:101c98009a28ef00e044880040bf2000f044880004
:101ca8005200200001fe2f008f804000a0802000fd
:101cb8009802070082012000fb8057004081200025
:101cc800940207003a0007002f000700c15d2000ba
:101cd800080078000a020700510020000800780078
:101ce80065010700c0ff2f00c021b60031ff2f009b
:101cf800001c200010886000c8a1a800c821a80006
:101d080020732000200e8800d821ef00c1e1a80030
:101d180000fc2f00a402b6000030a00020158800a7
:101d2800a042a900000e2000a022b700f00f2e004c
:101d3800a402b60000c0a00020158800f0cf2f0034
:101d4800a202b6000080a0001015880000ff2f0036
:101d5800a602b6000010a00030158800a6a2a800b0
:101d680041158800a062a800a1e2a800a3ff07000f
:101d780010002000c2010700a0ff0700100020008b
:101d8800bf010700f9ff370022a2a8002342a900db
:101d9800300020002222b70030fe2f002202b600b9
:101da8008001b3001011880021e2a800000006009d
:101db800b0002000f010880017e2a8001942a8001f
:101dc800f0f32f001802b6000070a000c0108800c1
:101dd80019e2a8008f00a8008f20a80000000600c4
:101de8002022ab00feff3a00020c2000ef0f50004b
:101df80001003c0002082000f300280003006000f6
:101e08000d003300000041002011880011407800c7
:101e18000004e000070032002022ab00feff3a0079
:101e28000000fb0020118800514078000004e00009
:101e3800f9ff3a00000006000000e90003ff2f0048
:101e4800008071000000e8000000410020118800b7
:101e5800114078000004e000efff3a00f5ff37007a
:101e68000000fa00881f78000f0478000181e8005c
:101e78000200a10082874700880278000100e00084
:101e880007003400880178000001eb0004c2b300a9
:101e9800845978000201e800810f5100fcff3a00e4
:101ea80085007800ceff0700880778004f04780087
:101eb8000080fa00000006002022ab00feff3a0076
:101ec800010c2000ef0f500006003400f20028003b
:101ed80002006000070033000080400020118800e5
:101ee8000000060001082000f2002800020060003f
:101ef800f9ff3b000000e90002ff2f00000071001d
:101f08000000e80000804000201188000000060062
:101f1800f4ff3700904078000104e000050032002b
:101f28008100fb00d1108800d04078000104e00057
:101f3800fbff3a0000000600e68747008e1f780086
:101f480066875700001f7800010f78000100e00045
:101f58001d003a006502410041002000d3cc2c004e
:101f68005fb897000303b800433bde006a33b9004b
:101f78000600500005c3b300056240008100e90077
:101f88005fbb97000333b8004338de00d0bf9f0023
:101f98005fb897000000e000f1ff3a000100e000a0
:101fa800060035000000eb0003c2b30003597800b7
:101fb8000000e800810f5000fcff34004f07780054
:101fc8006f00b1000000060002007800f1c4b30001
:101fd8000158780061c5b3000148780020c5b300f6
:101fe8002041980060c4b30030419800c0c4b300d9
:101ff800404198004f0778006f00b10000000600cc
:10200800f1ff3700e6874700889fbe008a9fbe0021
:102018008c9fbe008e1f78000006be000204780068
:10202800030578000800780096fd07008005440045
:102038000a00e000530034000000eb001900200003
:102048006a49b900820478000000e8008a0f50004d
:10205800fbff3a006148b90036f90700f0b79f0066
:1020680081bf9f001ec0b3006011b8000c00be0005
:10207800f0f807000000e0003f0035000047eb00e3
:102088000200200003f823000c00be0010fb07002c
:102098000006be000c00be00eaf807000004780045
:1020a8000a00e000170034007fb197008fb997004d
:1020b8008c0278000d027800050078008400780012
:1020c80003fb0700dff80700110009000900d8002a
:1020d8000b0078008a835500d6cc2c000609b8007e
:1020e8004319de006a12b9008480500003c3b300ac
:1020f80003e0400082007800870f5000f7ff3a00a5
:102108008a8555000b007800e1c2b30001607800b1
:102118000800e0000e0034008b85e9007466260094
:102128000b00780004c1b9004299de00cfc0de0080
:10213800810051006a09b9000204540002c3b300c7
:1021480082554400010478000800e000f4ff3a00da
:102158000e04e00002003200d1c2b3000160780032
:102168004f0778004f06be004f05be004f04be0063
:102178006f00b100000006000200200003f82b00e9
:10218800c1ff37000000200001f82300f0b79f00ce
:1021980081bf9f0019002000b2ff37008460a900aa
:1021a8000021ef0010088800e3806000c408dd000b
:1021b800f0fc2f000401b6000080700020088800a1
:1021c80005e1a8000000060084c0a9000621ef0070
:1021d80060088800e3806000c408dd00f0fc2f0080
:1021e8001001b600008070008008880011e1a80086
:1021f8000000060084e0a9000a21ef0070088800aa
:10220800e3806000c408dd00f0fc2f001201b60076
:10221800008070009008880013e1a8000000060004
:1022280086a0a9001421ef00d0088800e380600090
:10223800c408dd00f0fc2f001e01b600008070000d
:10224800f00888001fe1a8000000060086c0a90069
:102258001821ef00e0088800e3806000c408dd0072
:10226800f0fc2f002001b6000080700000098800f3
:1022780021e1a800000006000400fa00889fbe00c3
:102288000004780030022000808f50001c003400c9
:10229800c0112000808f500047003c000200200041
:1022a80003102400190020006108b900c2bf9f0074
:1022b800d3bf9f009ff807004fb99700dfb9970079
:1022c800a4f9070062662600634e240080fa07001e
:1022d8005cf80700e30f540019003200e30f5400c4
:1022e80024003400e40f54004b003200e50f540082
:1022f8003c0032004f04be000080fa0000000600d7
:102308000200200003f823008004eb006108b900f4
:10231800c2bf9f00d3bf9f0086f807004fb9970040
:10232800dfb997008bf9070062662600634e240028
:1023380067fa070043f80700e30f5400e7ff3a0085
:1023480084e0a9000a21ef0070088800c44cdd0071
:10235800f0fc2f001201b60000807400900888007d
:1023680013e1a8004f04be000080fa000000060038
:10237800e3ff3700e10f540034003200e20f54004d
:10238800dcff3a0084c0a9000621ef00600888003d
:10239800c44cdd00f0fc2f001001b6000080740072
:1023a8008008880011e1a8004f04be000080fa00f0
:1023b80000000600d2ff3700308e2000808f5000ca
:1023c80004003c000200200003282400290020000b
:1023d800b5ff370002002000033824003900200030
:1023e800b1ff370086c0a9001821ef00e008880077
:1023f800c44cdd00f0fc2f002001b6000080740002
:102408000009880021e1a8004f04be000080fa00fe
:1024180000000600baff370086a0a9001421ef00cb
:10242800d0088800c44cdd00f0fc2f001e01b60067
:1024380000807400f00888001fe1a8004f04be0067
:102448000080fa0000000600adff37008460a90094
:102458000021ef0010088800c44cdd00f0fc2f00bc
:102468000401b600008074002008880005e1a80077
:102478004f04be000080fa0000000600a0ff3700ed
:10248800e30f50000600320009003400e40f50004a
:1024980013003200e50f500015003200000006005e
:1024a80084e0ab00feff320084e0a90000000600d3
:1024b800e10f500006003200e20f5000f7ff3a002b
:1024c80084c0ab00feff320084c0a90000000600f3
:1024d8008460ab00feff32008460a90000000600a3
:1024e80086a0ab00feff320086a0a900000006000f
:1024f80086c0ab00feff320086c0a90000000600bf
:10250800881f780000047800080078005aff070048
:1025180008007800daff07004f0478000000060082
:1025280010017800e20f510020003200e30f510043
:1025380010003200e10f5100030032000001eb00ef
:1025480002007800000006000001eb0043c2b3005f
:1025580083cf5000faff3a002100200001087800dc
:10256800c006b0000008eb0002007800000006007a
:10257800f5ff3700a2c2b30082cf50002500320019
:10258800e306200080814100130178004406200002
:10259800840f5100150032000200400001489800e5
:1025a8008209e80000000500e7ff3700c2c2b30057
:1025b80082cf500020003200c206200000014100f6
:1025c80092017800e68f51000d003200a4c2b300da
:1025d80084cf5000220032000300400021409800c0
:1025e8000309e80000000500d7ff370011002000ac
:1025f800010878008009eb0000000500d2ff3700d1
:1026080011002000010878000009eb000000050017
:10261800cdff37001200200002087800f03090004b
:1026280001004000680040000048eb00020078000c
:1026380000000600c4ff37003100200001087800c0
:10264800e0309000810040008180e8008048eb0085
:10265800e006b0000008eb0000000500baff3700f4
:102668001200200002087800830140008381e800fe
:102678008049eb00680040000048eb000200780049
:1026880000000600b0ff3700000178009241780092
:10269800110020000083eb0001027800d0c2b300d3
:1026a80080cf51000600320001037800b0c2b300a9
:1026b80080cf5100020032008000eb000102780058
:1026c800e2c07800c3c2b3000000eb0083cf500023
:1026d8000d0032000104e0000b003200040141004b
:1026e8006a02b9008100fb00048040000003b100c9
:1026f800d240780083cf5000040032000104e0008b
:10270800f7ff3a000680b900000006000680b9000d
:10271800000006008001780081197800820978009d
:102728008000eb0064014000010978006601400068
:1027380001097800680040000108780000000600e0
:1027480010007800aafb3700e4014000000178007f
:102758000082eb0093027800d28f52000b00320007
:10276800660240001000780014004000014878001c
:10277800120178001400e800110009000200d800d6
:10278800010a78009309e8000002eb0004007800d1
:1027980000000600889fbe008a1f780000057800a8
:1027a80081047800890178000001eb000202e8004a
:1027b8003304e00004003200040178000202e8005b
:1027c8003304e000fcff3a008a0378006404450003
:1027d80057007800180250008081eb00820f5200e9
:1027e800110035000200e0000d0034000002eb008b
:1027f800e60145009a00780093824000b94a7800c3
:10280800970278001303e800110009000503d800b7
:10281800810978000402e800820f5200f5ff3a00af
:10282800180c41008001eb00030078004f05780088
:102838004f04be0000000600640140008001eb0068
:102848001200e0000b003200e8014000900278001e
:102858001382420094487800100290001300e800a8
:10286800110009000400d800810978001209e90064
:0c287800130020000300780000000600a0
:020000040000fa
:1028840000080000a000000000000000a0080000f4
:102894000200000000000000a20800000200000086
:0828a40000000000000000002c
:020000040000fa
:0200000401f009
:04000000f4bf000049
:020000040000fa
:0200000401f009
:04000400ff7f00007a
:020000040000fa
:0200000401f009
:04000800ffff0000f6
:020000040000fa
:0200000401f009
:04001400ffffff00eb
:020000040000fa
:0200000401f009
:04001800ffff0000e6
:00000001FF
